{
  "contractName": "PredictionMarket",
  "abi": [
    {
      "inputs": [
        {
          "internalType": "address",
          "name": "_oracle",
          "type": "address"
        }
      ],
      "stateMutability": "nonpayable",
      "type": "constructor"
    },
    {
      "inputs": [
        {
          "internalType": "enum PredictionMarket.Side",
          "name": "",
          "type": "uint8"
        }
      ],
      "name": "bets",
      "outputs": [
        {
          "internalType": "uint256",
          "name": "",
          "type": "uint256"
        }
      ],
      "stateMutability": "view",
      "type": "function"
    },
    {
      "inputs": [
        {
          "internalType": "address",
          "name": "",
          "type": "address"
        },
        {
          "internalType": "enum PredictionMarket.Side",
          "name": "",
          "type": "uint8"
        }
      ],
      "name": "betsPerGambler",
      "outputs": [
        {
          "internalType": "uint256",
          "name": "",
          "type": "uint256"
        }
      ],
      "stateMutability": "view",
      "type": "function"
    },
    {
      "inputs": [],
      "name": "electionFinished",
      "outputs": [
        {
          "internalType": "bool",
          "name": "",
          "type": "bool"
        }
      ],
      "stateMutability": "view",
      "type": "function"
    },
    {
      "inputs": [],
      "name": "oracle",
      "outputs": [
        {
          "internalType": "address",
          "name": "",
          "type": "address"
        }
      ],
      "stateMutability": "view",
      "type": "function"
    },
    {
      "inputs": [],
      "name": "result",
      "outputs": [
        {
          "internalType": "enum PredictionMarket.Side",
          "name": "winner",
          "type": "uint8"
        },
        {
          "internalType": "enum PredictionMarket.Side",
          "name": "loser",
          "type": "uint8"
        }
      ],
      "stateMutability": "view",
      "type": "function"
    },
    {
      "inputs": [
        {
          "internalType": "enum PredictionMarket.Side",
          "name": "_side",
          "type": "uint8"
        }
      ],
      "name": "placeBet",
      "outputs": [],
      "stateMutability": "payable",
      "type": "function"
    },
    {
      "inputs": [],
      "name": "withdrawGain",
      "outputs": [],
      "stateMutability": "nonpayable",
      "type": "function"
    },
    {
      "inputs": [
        {
          "internalType": "enum PredictionMarket.Side",
          "name": "_winner",
          "type": "uint8"
        },
        {
          "internalType": "enum PredictionMarket.Side",
          "name": "_loser",
          "type": "uint8"
        }
      ],
      "name": "reportResult",
      "outputs": [],
      "stateMutability": "nonpayable",
      "type": "function"
    }
  ],
  "bytecode": "0x608060405234801561001057600080fd5b506040516109ef3803806109ef8339818101604052602081101561003357600080fd5b810190808051906020019092919050505080600460006101000a81548173ffffffffffffffffffffffffffffffffffffffff021916908373ffffffffffffffffffffffffffffffffffffffff1602179055505061095a806100956000396000f3fe60806040526004361061007b5760003560e01c80637dc0d1d01161004e5780637dc0d1d01461015b5780637e0ecc001461019c5780639d5a3739146101ee578063beab6e7e146102605761007b565b80632b539c861461008057806343046844146100975780634ec942b7146100c85780636537214714610113575b600080fd5b34801561008c57600080fd5b5061009561028d565b005b6100c6600480360360208110156100ad57600080fd5b81019080803560ff1690602001909291905050506105b1565b005b3480156100d457600080fd5b50610111600480360360408110156100eb57600080fd5b81019080803560ff169060200190929190803560ff1690602001909291905050506106e8565b005b34801561011f57600080fd5b50610128610882565b6040518083600181111561013857fe5b815260200182600181111561014957fe5b81526020019250505060405180910390f35b34801561016757600080fd5b506101706108ae565b604051808273ffffffffffffffffffffffffffffffffffffffff16815260200191505060405180910390f35b3480156101a857600080fd5b506101d8600480360360208110156101bf57600080fd5b81019080803560ff1690602001909291905050506108d4565b6040518082815260200191505060405180910390f35b3480156101fa57600080fd5b5061024a6004803603604081101561021157600080fd5b81019080803573ffffffffffffffffffffffffffffffffffffffff169060200190929190803560ff1690602001909291905050506108ec565b6040518082815260200191505060405180910390f35b34801561026c57600080fd5b50610275610911565b60405180821515815260200191505060405180910390f35b6000600360003373ffffffffffffffffffffffffffffffffffffffff1673ffffffffffffffffffffffffffffffffffffffff16815260200190815260200160002060008060000160009054906101000a900460ff1660018111156102ed57fe5b60018111156102f857fe5b81526020019081526020016000205490506000811161037f576040517f08c379a000000000000000000000000000000000000000000000000000000000815260040180806020018281038252601e8152602001807f596f7520646f206e6f74206861766520616e792057696e6e696720626574000081525060200191505060405180910390fd5b60011515600160009054906101000a900460ff16151514610408576040517f08c379a00000000000000000000000000000000000000000000000000000000081526004018080602001828103825260158152602001807f456c656374696f6e206e6f742046696e6973686564000000000000000000000081525060200191505060405180910390fd5b6000600260008060000160009054906101000a900460ff16600181111561042b57fe5b600181111561043657fe5b81526020019081526020016000205482600260008060000160019054906101000a900460ff16600181111561046757fe5b600181111561047257fe5b815260200190815260200160002054028161048957fe5b04820190506000600360003373ffffffffffffffffffffffffffffffffffffffff1673ffffffffffffffffffffffffffffffffffffffff16815260200190815260200160002060008060018111156104dd57fe5b60018111156104e857fe5b8152602001908152602001600020819055506000600360003373ffffffffffffffffffffffffffffffffffffffff1673ffffffffffffffffffffffffffffffffffffffff168152602001908152602001600020600060018081111561054957fe5b600181111561055457fe5b8152602001908152602001600020819055503373ffffffffffffffffffffffffffffffffffffffff166108fc829081150290604051600060405180830381858888f193505050501580156105ac573d6000803e3d6000fd5b505050565b60001515600160009054906101000a900460ff1615151461063a576040517f08c379a00000000000000000000000000000000000000000000000000000000081526004018080602001828103825260148152602001807f656c656374696f6e2069732066696e697368656400000000000000000000000081525060200191505060405180910390fd5b346002600083600181111561064b57fe5b600181111561065657fe5b81526020019081526020016000206000828254019250508190555034600360003373ffffffffffffffffffffffffffffffffffffffff1673ffffffffffffffffffffffffffffffffffffffff16815260200190815260200160002060008360018111156106bf57fe5b60018111156106ca57fe5b81526020019081526020016000206000828254019250508190555050565b3373ffffffffffffffffffffffffffffffffffffffff16600460009054906101000a900473ffffffffffffffffffffffffffffffffffffffff1673ffffffffffffffffffffffffffffffffffffffff16146107ab576040517f08c379a000000000000000000000000000000000000000000000000000000000815260040180806020018281038252600b8152602001807f6f6e6c79206f7261636c6500000000000000000000000000000000000000000081525060200191505060405180910390fd5b60001515600160009054906101000a900460ff16151514610834576040517f08c379a00000000000000000000000000000000000000000000000000000000081526004018080602001828103825260148152602001807f656c656374696f6e2069732066696e697368656400000000000000000000000081525060200191505060405180910390fd5b816000800160006101000a81548160ff0219169083600181111561085457fe5b0217905550806000800160016101000a81548160ff0219169083600181111561087957fe5b02179055505050565b60008060000160009054906101000a900460ff16908060000160019054906101000a900460ff16905082565b600460009054906101000a900473ffffffffffffffffffffffffffffffffffffffff1681565b60026020528060005260406000206000915090505481565b6003602052816000526040600020602052806000526040600020600091509150505481565b600160009054906101000a900460ff168156fea2646970667358221220f0bce7c56974144116fba03c6cd1090f2edaa5438693ae3a1786e26b003e2a6e64736f6c63430007030033",
  "immutableReferences": {},
  "source": "// SPDX-License-Identifier: MIT\r\npragma solidity 0.7.3;\r\n\r\ncontract PredictionMarket {\r\n\r\n    enum Side {Biden, Trump }\r\n\r\n    struct Result {\r\n        Side winner;\r\n        Side loser;\r\n    }\r\n\r\n    Result public result;\r\n    bool public electionFinished;\r\n\r\n    mapping(Side => uint) public bets;\r\n    mapping(address => mapping(Side => uint)) public betsPerGambler;\r\n\r\n    address public oracle;\r\n\r\n    constructor(address _oracle){\r\n        oracle = _oracle;\r\n    }\r\n\r\n    function placeBet(Side _side) external payable {\r\n        require(electionFinished == false, 'election is finished');\r\n        bets[_side] += msg.value;\r\n        betsPerGambler[msg.sender][_side] += msg.value;\r\n    }\r\n\r\n    function withdrawGain() external {\r\n        uint gamblerBet = betsPerGambler[msg.sender][result.winner];\r\n        require(gamblerBet > 0, 'You do not have any Winnig bet');\r\n        require(electionFinished == true, 'Election not Finished');\r\n        uint gain = gamblerBet + bets[result.loser] * gamblerBet / bets[result.winner];\r\n        betsPerGambler[msg.sender][Side.Biden] = 0;\r\n        betsPerGambler[msg.sender][Side.Trump] = 0;\r\n        msg.sender.transfer(gain);\r\n    }\r\n\r\n    function reportResult(Side _winner, Side _loser) external {\r\n        require(oracle == msg.sender, 'only oracle');\r\n        require(electionFinished == false, 'election is finished');\r\n        result.winner = _winner;\r\n        result.loser = _loser;\r\n    }\r\n}",
  "sourcePath": "C:\\Users\\Hp\\Documents\\Projects\\Election_Prediction_Dapp_Oracle\\contracts\\PredictionMarket.sol",
  "compiler": {
    "name": "solc",
    "version": "0.7.3+commit.9bfce1f6.Emscripten.clang"
  },
  "schemaVersion": "3.4.3",
  "updatedAt": "2022-03-03T09:11:19.938Z",
  "devdoc": {
    "kind": "dev",
    "methods": {},
    "version": 1
  },
  "userdoc": {
    "kind": "user",
    "methods": {},
    "version": 1
  }
}